{
  "contractName": "Crib",
  "abi": [
    {
      "constant": true,
      "inputs": [],
      "name": "transactionCounter",
      "outputs": [
        {
          "name": "",
          "type": "uint8"
        }
      ],
      "payable": false,
      "stateMutability": "view",
      "type": "function"
    },
    {
      "constant": false,
      "inputs": [],
      "name": "getTransactionCounter",
      "outputs": [
        {
          "name": "",
          "type": "uint8"
        }
      ],
      "payable": false,
      "stateMutability": "nonpayable",
      "type": "function"
    },
    {
      "constant": false,
      "inputs": [
        {
          "name": "cribId",
          "type": "uint256"
        }
      ],
      "name": "sign",
      "outputs": [
        {
          "name": "",
          "type": "uint256"
        }
      ],
      "payable": false,
      "stateMutability": "nonpayable",
      "type": "function"
    },
    {
      "constant": true,
      "inputs": [
        {
          "name": "",
          "type": "uint256"
        }
      ],
      "name": "cribs",
      "outputs": [
        {
          "name": "",
          "type": "address"
        }
      ],
      "payable": false,
      "stateMutability": "view",
      "type": "function"
    },
    {
      "inputs": [],
      "payable": false,
      "stateMutability": "nonpayable",
      "type": "constructor"
    }
  ],
  "bytecode": "0x6060604052341561000f57600080fd5b6000600a60006101000a81548160ff021916908360ff1602179055506102718061003a6000396000f300606060405260043610610062576000357c0100000000000000000000000000000000000000000000000000000000900463ffffffff16806314e887e8146100675780632dd1b86b146100965780632fb1b25f146100c557806367ebccd1146100fc575b600080fd5b341561007257600080fd5b61007a61015f565b604051808260ff1660ff16815260200191505060405180910390f35b34156100a157600080fd5b6100a9610172565b604051808260ff1660ff16815260200191505060405180910390f35b34156100d057600080fd5b6100e66004808035906020019091905050610189565b6040518082815260200191505060405180910390f35b341561010757600080fd5b61011d6004808035906020019091905050610210565b604051808273ffffffffffffffffffffffffffffffffffffffff1673ffffffffffffffffffffffffffffffffffffffff16815260200191505060405180910390f35b600a60009054906101000a900460ff1681565b6000600a60009054906101000a900460ff16905090565b60006001600a60008282829054906101000a900460ff160192506101000a81548160ff021916908360ff16021790555033600083600a811015156101c957fe5b0160006101000a81548173ffffffffffffffffffffffffffffffffffffffff021916908373ffffffffffffffffffffffffffffffffffffffff160217905550819050919050565b600081600a8110151561021f57fe5b016000915054906101000a900473ffffffffffffffffffffffffffffffffffffffff16815600a165627a7a72305820b9c015ad2220276bed7960326452ac8922ecfb6690c64c5d45746b3afd0d3d4e0029",
  "source": "pragma solidity ^0.4.17;\n\ncontract Crib {\n\n    /* On sign event, a crib is associated with\n    the address of a tenant. Initialized with '0x0'. */\n    address[10] public cribs;\n\n    /* ------------------------------- */\n    // Branch 'transactionCounter'.\n    uint8 public transactionCounter;\n\n    function Crib() public {\n        transactionCounter = 0;\n    }\n\n    function getTransactionCounter() returns (uint8) {\n        return transactionCounter;\n    }\n    /* ------------------------------- */\n\n    function sign(uint cribId) public returns (uint) {\n\n        /* ------------------------------- */\n        // Branch 'transactionCounter'.\n        transactionCounter += 1;\n        /* ------------------------------- */\n\n        cribs[cribId] = msg.sender;\n        return cribId;\n    }\n\n    \n\n}\n",
  "sourcePath": "/home/mzh/projects/092_reptoken/contracts/Crib.sol",
  "compiler": {
    "name": "solc",
    "version": "0.4.18+commit.9cf6e910.Emscripten.clang"
  },
  "schemaVersion": "1.0.1",
  "updatedAt": "2018-01-16T05:25:33.812Z"
}