{
  "contractName": "Crib",
  "abi": [
    {
      "constant": false,
      "inputs": [
        {
          "name": "cribId",
          "type": "uint256"
        }
      ],
      "name": "sign",
      "outputs": [
        {
          "name": "",
          "type": "uint256"
        }
      ],
      "payable": false,
      "stateMutability": "nonpayable",
      "type": "function"
    },
    {
      "constant": true,
      "inputs": [
        {
          "name": "",
          "type": "uint256"
        }
      ],
      "name": "cribs",
      "outputs": [
        {
          "name": "",
          "type": "address"
        }
      ],
      "payable": false,
      "stateMutability": "view",
      "type": "function"
    }
  ],
  "bytecode": "0x6060604052341561000f57600080fd5b6101a58061001e6000396000f30060606040526004361061004c576000357c0100000000000000000000000000000000000000000000000000000000900463ffffffff1680632fb1b25f1461005157806367ebccd114610088575b600080fd5b341561005c57600080fd5b61007260048080359060200190919050506100eb565b6040518082815260200191505060405180910390f35b341561009357600080fd5b6100a96004808035906020019091905050610144565b604051808273ffffffffffffffffffffffffffffffffffffffff1673ffffffffffffffffffffffffffffffffffffffff16815260200191505060405180910390f35b600033600083600a811015156100fd57fe5b0160006101000a81548173ffffffffffffffffffffffffffffffffffffffff021916908373ffffffffffffffffffffffffffffffffffffffff160217905550819050919050565b600081600a8110151561015357fe5b016000915054906101000a900473ffffffffffffffffffffffffffffffffffffffff16815600a165627a7a723058206135cda01eabfcc998e02705fd34bbcd063e8e8ee972ce144c4c947fa2fbf0f40029",
  "source": "pragma solidity ^0.4.17;\n\ncontract Crib {\n\n    /* On sign event, a crib is associated with\n    the address of a tenant. Initialized with '0x0'. */\n    address[10] public cribs;\n\n    function sign(uint cribId) public returns (uint) {\n        cribs[cribId] = msg.sender;\n        return cribId;\n    }\n\n}\n",
  "sourcePath": "/home/mzh/projects/092_reptoken/contracts/Crib.sol",
  "compiler": {
    "name": "solc",
    "version": "0.4.18+commit.9cf6e910.Emscripten.clang"
  },
  "schemaVersion": "1.0.1",
  "updatedAt": "2018-01-10T20:44:30.690Z"
}